:060000000A128A1100291A
:10000800F000030EF1002621880A710E8300F00E1D
:04001800700E09005D
:100200000721122119212C21031383120629031718
:10021000831688018901031383168801031383124F
:1002200088010800031383160F140F128F160F177F
:100230000800031383168111011581140114811222
:10024000031383123D3081000B1108000313831246
:100250003D3081000B110800031383128B178B169E
:040260000B11080076
:04400E00C530FF3F7B
:00000001FF
